{
    "_format": "hh-sol-artifact-1",
    "contractName": "Transaction",
    "sourceName": "contracts/Transaction.sol",
    "abi": [
        {
            "anonymous": false,
            "inputs": [
                {
                    "indexed": false,
                    "internalType": "address",
                    "name": "provider",
                    "type": "address"
                },
                {
                    "indexed": false,
                    "internalType": "address",
                    "name": "receiver",
                    "type": "address"
                },
                {
                    "indexed": false,
                    "internalType": "uint256",
                    "name": "amount",
                    "type": "uint256"
                },
                {
                    "indexed": false,
                    "internalType": "uint256",
                    "name": "timestamp",
                    "type": "uint256"
                },
                {
                    "indexed": false,
                    "internalType": "string",
                    "name": "keyword",
                    "type": "string"
                },
                {
                    "indexed": false,
                    "internalType": "string",
                    "name": "message",
                    "type": "string"
                }
            ],
            "name": "Transfer",
            "type": "event"
        },
        {
            "inputs": [
                {
                    "internalType": "address payable",
                    "name": "receiver",
                    "type": "address"
                },
                {
                    "internalType": "uint256",
                    "name": "amount",
                    "type": "uint256"
                },
                {
                    "internalType": "uint256",
                    "name": "timestamp",
                    "type": "uint256"
                },
                {
                    "internalType": "string",
                    "name": "keyword",
                    "type": "string"
                },
                {
                    "internalType": "string",
                    "name": "message",
                    "type": "string"
                }
            ],
            "name": "addToBlockchain",
            "outputs": [],
            "stateMutability": "nonpayable",
            "type": "function"
        },
        {
            "inputs": [],
            "name": "getAllTransactions",
            "outputs": [
                {
                    "components": [
                        {
                            "internalType": "address",
                            "name": "provider",
                            "type": "address"
                        },
                        {
                            "internalType": "address",
                            "name": "receiver",
                            "type": "address"
                        },
                        {
                            "internalType": "uint256",
                            "name": "amount",
                            "type": "uint256"
                        },
                        {
                            "internalType": "uint256",
                            "name": "timestamp",
                            "type": "uint256"
                        },
                        {
                            "internalType": "string",
                            "name": "keyword",
                            "type": "string"
                        },
                        {
                            "internalType": "string",
                            "name": "message",
                            "type": "string"
                        }
                    ],
                    "internalType": "struct Transaction.TransferStruct[]",
                    "name": "",
                    "type": "tuple[]"
                }
            ],
            "stateMutability": "view",
            "type": "function"
        },
        {
            "inputs": [],
            "name": "getTransactionCount",
            "outputs": [
                {
                    "internalType": "uint256",
                    "name": "",
                    "type": "uint256"
                }
            ],
            "stateMutability": "view",
            "type": "function"
        }
    ],
    "bytecode": "0x608060405234801561001057600080fd5b50610c8a806100206000396000f3fe608060405234801561001057600080fd5b50600436106100415760003560e01c806327506f53146100465780632e7700f014610064578063b8281beb14610082575b600080fd5b61004e61009e565b60405161005b9190610795565b60405180910390f35b61006c6102e1565b60405161007991906107c6565b60405180910390f35b61009c60048036038101906100979190610994565b6102ea565b005b60606001805480602002602001604051908101604052809291908181526020016000905b828210156102d857838290600052602060002090600602016040518060c00160405290816000820160009054906101000a900473ffffffffffffffffffffffffffffffffffffffff1673ffffffffffffffffffffffffffffffffffffffff1673ffffffffffffffffffffffffffffffffffffffff1681526020016001820160009054906101000a900473ffffffffffffffffffffffffffffffffffffffff1673ffffffffffffffffffffffffffffffffffffffff1673ffffffffffffffffffffffffffffffffffffffff16815260200160028201548152602001600382015481526020016004820180546101b590610a76565b80601f01602080910402602001604051908101604052809291908181526020018280546101e190610a76565b801561022e5780601f106102035761010080835404028352916020019161022e565b820191906000526020600020905b81548152906001019060200180831161021157829003601f168201915b5050505050815260200160058201805461024790610a76565b80601f016020809104026020016040519081016040528092919081815260200182805461027390610a76565b80156102c05780601f10610295576101008083540402835291602001916102c0565b820191906000526020600020905b8154815290600101906020018083116102a357829003601f168201915b505050505081525050815260200190600101906100c2565b50505050905090565b60008054905090565b60016000808282546102fc9190610ad7565b9250508190555060016040518060c001604052803373ffffffffffffffffffffffffffffffffffffffff1681526020018773ffffffffffffffffffffffffffffffffffffffff16815260200186815260200185815260200184815260200183815250908060018154018082558091505060019003906000526020600020906006020160009091909190915060008201518160000160006101000a81548173ffffffffffffffffffffffffffffffffffffffff021916908373ffffffffffffffffffffffffffffffffffffffff16021790555060208201518160010160006101000a81548173ffffffffffffffffffffffffffffffffffffffff021916908373ffffffffffffffffffffffffffffffffffffffff160217905550604082015181600201556060820151816003015560808201518160040190805190602001906104459291906104ad565b5060a08201518160050190805190602001906104629291906104ad565b5050507f1e92c3b94e87106bb5e1f3493c1debe5003450085b72f643a2839c3e4dd25eb633868686868660405161049e96959493929190610be5565b60405180910390a15050505050565b8280546104b990610a76565b90600052602060002090601f0160209004810192826104db5760008555610522565b82601f106104f457805160ff1916838001178555610522565b82800160010185558215610522579182015b82811115610521578251825591602001919060010190610506565b5b50905061052f9190610533565b5090565b5b8082111561054c576000816000905550600101610534565b5090565b600081519050919050565b600082825260208201905092915050565b6000819050602082019050919050565b600073ffffffffffffffffffffffffffffffffffffffff82169050919050565b60006105a78261057c565b9050919050565b6105b78161059c565b82525050565b6000819050919050565b6105d0816105bd565b82525050565b600081519050919050565b600082825260208201905092915050565b60005b838110156106105780820151818401526020810190506105f5565b8381111561061f576000848401525b50505050565b6000601f19601f8301169050919050565b6000610641826105d6565b61064b81856105e1565b935061065b8185602086016105f2565b61066481610625565b840191505092915050565b600060c08301600083015161068760008601826105ae565b50602083015161069a60208601826105ae565b5060408301516106ad60408601826105c7565b5060608301516106c060608601826105c7565b50608083015184820360808601526106d88282610636565b91505060a083015184820360a08601526106f28282610636565b9150508091505092915050565b600061070b838361066f565b905092915050565b6000602082019050919050565b600061072b82610550565b610735818561055b565b9350836020820285016107478561056c565b8060005b85811015610783578484038952815161076485826106ff565b945061076f83610713565b925060208a0199505060018101905061074b565b50829750879550505050505092915050565b600060208201905081810360008301526107af8184610720565b905092915050565b6107c0816105bd565b82525050565b60006020820190506107db60008301846107b7565b92915050565b6000604051905090565b600080fd5b600080fd5b60006108008261057c565b9050919050565b610810816107f5565b811461081b57600080fd5b50565b60008135905061082d81610807565b92915050565b61083c816105bd565b811461084757600080fd5b50565b60008135905061085981610833565b92915050565b600080fd5b600080fd5b7f4e487b7100000000000000000000000000000000000000000000000000000000600052604160045260246000fd5b6108a182610625565b810181811067ffffffffffffffff821117156108c0576108bf610869565b5b80604052505050565b60006108d36107e1565b90506108df8282610898565b919050565b600067ffffffffffffffff8211156108ff576108fe610869565b5b61090882610625565b9050602081019050919050565b82818337600083830152505050565b6000610937610932846108e4565b6108c9565b90508281526020810184848401111561095357610952610864565b5b61095e848285610915565b509392505050565b600082601f83011261097b5761097a61085f565b5b813561098b848260208601610924565b91505092915050565b600080600080600060a086880312156109b0576109af6107eb565b5b60006109be8882890161081e565b95505060206109cf8882890161084a565b94505060406109e08882890161084a565b935050606086013567ffffffffffffffff811115610a0157610a006107f0565b5b610a0d88828901610966565b925050608086013567ffffffffffffffff811115610a2e57610a2d6107f0565b5b610a3a88828901610966565b9150509295509295909350565b7f4e487b7100000000000000000000000000000000000000000000000000000000600052602260045260246000fd5b60006002820490506001821680610a8e57607f821691505b60208210811415610aa257610aa1610a47565b5b50919050565b7f4e487b7100000000000000000000000000000000000000000000000000000000600052601160045260246000fd5b6000610ae2826105bd565b9150610aed836105bd565b9250827fffffffffffffffffffffffffffffffffffffffffffffffffffffffffffffffff03821115610b2257610b21610aa8565b5b828201905092915050565b610b368161059c565b82525050565b6000819050919050565b6000610b61610b5c610b578461057c565b610b3c565b61057c565b9050919050565b6000610b7382610b46565b9050919050565b6000610b8582610b68565b9050919050565b610b9581610b7a565b82525050565b600082825260208201905092915050565b6000610bb7826105d6565b610bc18185610b9b565b9350610bd18185602086016105f2565b610bda81610625565b840191505092915050565b600060c082019050610bfa6000830189610b2d565b610c076020830188610b8c565b610c1460408301876107b7565b610c2160608301866107b7565b8181036080830152610c338185610bac565b905081810360a0830152610c478184610bac565b905097965050505050505056fea26469706673582212209b4d984649189d24fea5b357c4fbddd3d3a01093459515448afa62a1f582e18a64736f6c63430008090033",
    "linkReferences": {},
    "deployedLinkReferences": {}
}